{
  "contractName": "Doctor",
  "abi": [
    {
      "inputs": [],
      "stateMutability": "nonpayable",
      "type": "constructor"
    },
    {
      "anonymous": false,
      "inputs": [
        {
          "indexed": false,
          "internalType": "uint256",
          "name": "_docid",
          "type": "uint256"
        },
        {
          "indexed": false,
          "internalType": "string",
          "name": "_firstName",
          "type": "string"
        },
        {
          "indexed": false,
          "internalType": "string",
          "name": "_lastName",
          "type": "string"
        }
      ],
      "name": "DocRegistered",
      "type": "event"
    },
    {
      "anonymous": false,
      "inputs": [
        {
          "indexed": false,
          "internalType": "address",
          "name": "sender",
          "type": "address"
        },
        {
          "indexed": false,
          "internalType": "address",
          "name": "receiver",
          "type": "address"
        },
        {
          "components": [
            {
              "internalType": "uint256",
              "name": "field",
              "type": "uint256"
            },
            {
              "internalType": "string",
              "name": "fileHash",
              "type": "string"
            },
            {
              "internalType": "uint256",
              "name": "fileSize",
              "type": "uint256"
            },
            {
              "internalType": "string",
              "name": "fileType",
              "type": "string"
            },
            {
              "internalType": "string",
              "name": "fileName",
              "type": "string"
            },
            {
              "internalType": "uint256",
              "name": "uploadTime",
              "type": "uint256"
            },
            {
              "internalType": "address payable",
              "name": "uploader",
              "type": "address"
            }
          ],
          "indexed": false,
          "internalType": "struct User.File",
          "name": "file",
          "type": "tuple"
        }
      ],
      "name": "FileShared",
      "type": "event"
    },
    {
      "anonymous": false,
      "inputs": [
        {
          "indexed": false,
          "internalType": "uint256",
          "name": "field",
          "type": "uint256"
        },
        {
          "indexed": false,
          "internalType": "string",
          "name": "fileHash",
          "type": "string"
        },
        {
          "indexed": false,
          "internalType": "uint256",
          "name": "fileSize",
          "type": "uint256"
        },
        {
          "indexed": false,
          "internalType": "string",
          "name": "fileType",
          "type": "string"
        },
        {
          "indexed": false,
          "internalType": "string",
          "name": "fileName",
          "type": "string"
        },
        {
          "indexed": false,
          "internalType": "uint256",
          "name": "uploadTime",
          "type": "uint256"
        },
        {
          "indexed": false,
          "internalType": "address payable",
          "name": "uploader",
          "type": "address"
        }
      ],
      "name": "FileUploaded",
      "type": "event"
    },
    {
      "inputs": [],
      "name": "docCount",
      "outputs": [
        {
          "internalType": "uint256",
          "name": "",
          "type": "uint256"
        }
      ],
      "stateMutability": "view",
      "type": "function"
    },
    {
      "inputs": [
        {
          "internalType": "address",
          "name": "",
          "type": "address"
        }
      ],
      "name": "docList",
      "outputs": [
        {
          "internalType": "uint256",
          "name": "id",
          "type": "uint256"
        },
        {
          "internalType": "string",
          "name": "firstName",
          "type": "string"
        },
        {
          "internalType": "string",
          "name": "lastName",
          "type": "string"
        }
      ],
      "stateMutability": "view",
      "type": "function"
    },
    {
      "inputs": [],
      "name": "fileCount",
      "outputs": [
        {
          "internalType": "uint256",
          "name": "",
          "type": "uint256"
        }
      ],
      "stateMutability": "view",
      "type": "function"
    },
    {
      "inputs": [
        {
          "internalType": "address",
          "name": "",
          "type": "address"
        },
        {
          "internalType": "uint256",
          "name": "",
          "type": "uint256"
        }
      ],
      "name": "files",
      "outputs": [
        {
          "internalType": "uint256",
          "name": "field",
          "type": "uint256"
        },
        {
          "internalType": "string",
          "name": "fileHash",
          "type": "string"
        },
        {
          "internalType": "uint256",
          "name": "fileSize",
          "type": "uint256"
        },
        {
          "internalType": "string",
          "name": "fileType",
          "type": "string"
        },
        {
          "internalType": "string",
          "name": "fileName",
          "type": "string"
        },
        {
          "internalType": "uint256",
          "name": "uploadTime",
          "type": "uint256"
        },
        {
          "internalType": "address payable",
          "name": "uploader",
          "type": "address"
        }
      ],
      "stateMutability": "view",
      "type": "function"
    },
    {
      "inputs": [
        {
          "internalType": "uint256",
          "name": "index",
          "type": "uint256"
        }
      ],
      "name": "getFiles",
      "outputs": [
        {
          "components": [
            {
              "internalType": "uint256",
              "name": "field",
              "type": "uint256"
            },
            {
              "internalType": "string",
              "name": "fileHash",
              "type": "string"
            },
            {
              "internalType": "uint256",
              "name": "fileSize",
              "type": "uint256"
            },
            {
              "internalType": "string",
              "name": "fileType",
              "type": "string"
            },
            {
              "internalType": "string",
              "name": "fileName",
              "type": "string"
            },
            {
              "internalType": "uint256",
              "name": "uploadTime",
              "type": "uint256"
            },
            {
              "internalType": "address payable",
              "name": "uploader",
              "type": "address"
            }
          ],
          "internalType": "struct User.File",
          "name": "",
          "type": "tuple"
        }
      ],
      "stateMutability": "view",
      "type": "function"
    },
    {
      "inputs": [],
      "name": "getFilesCount",
      "outputs": [
        {
          "internalType": "uint256",
          "name": "",
          "type": "uint256"
        }
      ],
      "stateMutability": "view",
      "type": "function"
    },
    {
      "inputs": [],
      "name": "getSharedFiles",
      "outputs": [
        {
          "components": [
            {
              "internalType": "uint256",
              "name": "field",
              "type": "uint256"
            },
            {
              "internalType": "string",
              "name": "fileHash",
              "type": "string"
            },
            {
              "internalType": "uint256",
              "name": "fileSize",
              "type": "uint256"
            },
            {
              "internalType": "string",
              "name": "fileType",
              "type": "string"
            },
            {
              "internalType": "string",
              "name": "fileName",
              "type": "string"
            },
            {
              "internalType": "uint256",
              "name": "uploadTime",
              "type": "uint256"
            },
            {
              "internalType": "address payable",
              "name": "uploader",
              "type": "address"
            }
          ],
          "internalType": "struct User.File[]",
          "name": "",
          "type": "tuple[]"
        }
      ],
      "stateMutability": "view",
      "type": "function"
    },
    {
      "inputs": [],
      "name": "getSharedFilesCount",
      "outputs": [
        {
          "internalType": "uint8",
          "name": "",
          "type": "uint8"
        }
      ],
      "stateMutability": "view",
      "type": "function"
    },
    {
      "inputs": [],
      "name": "getUserType",
      "outputs": [
        {
          "internalType": "string",
          "name": "",
          "type": "string"
        }
      ],
      "stateMutability": "view",
      "type": "function"
    },
    {
      "inputs": [
        {
          "internalType": "string",
          "name": "_userType",
          "type": "string"
        }
      ],
      "name": "setUserType",
      "outputs": [],
      "stateMutability": "nonpayable",
      "type": "function"
    },
    {
      "inputs": [
        {
          "components": [
            {
              "internalType": "uint256",
              "name": "field",
              "type": "uint256"
            },
            {
              "internalType": "string",
              "name": "fileHash",
              "type": "string"
            },
            {
              "internalType": "uint256",
              "name": "fileSize",
              "type": "uint256"
            },
            {
              "internalType": "string",
              "name": "fileType",
              "type": "string"
            },
            {
              "internalType": "string",
              "name": "fileName",
              "type": "string"
            },
            {
              "internalType": "uint256",
              "name": "uploadTime",
              "type": "uint256"
            },
            {
              "internalType": "address payable",
              "name": "uploader",
              "type": "address"
            }
          ],
          "internalType": "struct User.File",
          "name": "_file",
          "type": "tuple"
        },
        {
          "internalType": "address payable",
          "name": "_receiver",
          "type": "address"
        }
      ],
      "name": "shareFile",
      "outputs": [],
      "stateMutability": "nonpayable",
      "type": "function"
    },
    {
      "inputs": [
        {
          "internalType": "address",
          "name": "",
          "type": "address"
        },
        {
          "internalType": "uint256",
          "name": "",
          "type": "uint256"
        }
      ],
      "name": "sharedFiles",
      "outputs": [
        {
          "internalType": "uint256",
          "name": "field",
          "type": "uint256"
        },
        {
          "internalType": "string",
          "name": "fileHash",
          "type": "string"
        },
        {
          "internalType": "uint256",
          "name": "fileSize",
          "type": "uint256"
        },
        {
          "internalType": "string",
          "name": "fileType",
          "type": "string"
        },
        {
          "internalType": "string",
          "name": "fileName",
          "type": "string"
        },
        {
          "internalType": "uint256",
          "name": "uploadTime",
          "type": "uint256"
        },
        {
          "internalType": "address payable",
          "name": "uploader",
          "type": "address"
        }
      ],
      "stateMutability": "view",
      "type": "function"
    },
    {
      "inputs": [
        {
          "internalType": "string",
          "name": "_fileHash",
          "type": "string"
        },
        {
          "internalType": "uint256",
          "name": "_fileSize",
          "type": "uint256"
        },
        {
          "internalType": "string",
          "name": "_fileType",
          "type": "string"
        },
        {
          "internalType": "string",
          "name": "_fileName",
          "type": "string"
        }
      ],
      "name": "uploadFile",
      "outputs": [],
      "stateMutability": "nonpayable",
      "type": "function"
    },
    {
      "inputs": [
        {
          "internalType": "address",
          "name": "",
          "type": "address"
        }
      ],
      "name": "userType",
      "outputs": [
        {
          "internalType": "string",
          "name": "",
          "type": "string"
        }
      ],
      "stateMutability": "view",
      "type": "function"
    },
    {
      "inputs": [
        {
          "internalType": "string",
          "name": "_firstName",
          "type": "string"
        },
        {
          "internalType": "string",
          "name": "_lastName",
          "type": "string"
        }
      ],
      "name": "registerDoc",
      "outputs": [],
      "stateMutability": "nonpayable",
      "type": "function"
    },
    {
      "inputs": [],
      "name": "getDoc",
      "outputs": [
        {
          "components": [
            {
              "internalType": "uint256",
              "name": "id",
              "type": "uint256"
            },
            {
              "internalType": "string",
              "name": "firstName",
              "type": "string"
            },
            {
              "internalType": "string",
              "name": "lastName",
              "type": "string"
            }
          ],
          "internalType": "struct Doctor.doc",
          "name": "",
          "type": "tuple"
        }
      ],
      "stateMutability": "view",
      "type": "function"
    }
  ],
  "bytecode": "0x608060405260008055600060045534801561001957600080fd5b50612681806100296000396000f3fe608060405234801561001057600080fd5b50600436106101005760003560e01c8063914e314411610097578063c584586711610066578063c5845867146102d1578063ea5530da146102ef578063edd490b41461030d578063f19326441461032957610100565b8063914e314414610249578063a3322a1214610267578063b12c9d9414610285578063b83458b0146102a157610100565b806343953519116100d357806343953519146101a55780634c4dc6e0146101c357806356041432146101e15780635b4c42e51461021757610100565b806312506f4d1461010557806320f21708146101355780632ba6978e146101515780634199007714610187575b600080fd5b61011f600480360381019061011a91906117aa565b610345565b60405161012c9190611961565b60405180910390f35b61014f600480360381019061014a9190611ab8565b6105e9565b005b61016b60048036038101906101669190611bb1565b610817565b60405161017e9796959493929190611c59565b60405180910390f35b61018f610a2e565b60405161019c9190611cdd565b60405180910390f35b6101ad610afd565b6040516101ba9190611cff565b60405180910390f35b6101cb610b03565b6040516101d89190611cff565b60405180910390f35b6101fb60048036038101906101f69190611bb1565b610b09565b60405161020e9796959493929190611c59565b60405180910390f35b610231600480360381019061022c9190611d1a565b610d20565b60405161024093929190611d47565b60405180910390f35b610251610e5a565b60405161025e9190611ef8565b60405180910390f35b61026f611120565b60405161027c9190611cff565b60405180910390f35b61029f600480360381019061029a9190611f1a565b61116a565b005b6102bb60048036038101906102b69190611d1a565b611212565b6040516102c89190611cdd565b60405180910390f35b6102d96112b2565b6040516102e69190611fba565b60405180910390f35b6102f7611437565b6040516103049190611ff8565b60405180910390f35b61032760048036038101906103229190612151565b611481565b005b610343600480360381019061033e91906121ad565b6115d2565b005b61034d6116ec565b600160003373ffffffffffffffffffffffffffffffffffffffff1673ffffffffffffffffffffffffffffffffffffffff16815260200190815260200160002060008154811061039f5761039e612225565b5b90600052602060002090600702016040518060e0016040529081600082015481526020016001820180546103d290612283565b80601f01602080910402602001604051908101604052809291908181526020018280546103fe90612283565b801561044b5780601f106104205761010080835404028352916020019161044b565b820191906000526020600020905b81548152906001019060200180831161042e57829003601f168201915b505050505081526020016002820154815260200160038201805461046e90612283565b80601f016020809104026020016040519081016040528092919081815260200182805461049a90612283565b80156104e75780601f106104bc576101008083540402835291602001916104e7565b820191906000526020600020905b8154815290600101906020018083116104ca57829003601f168201915b5050505050815260200160048201805461050090612283565b80601f016020809104026020016040519081016040528092919081815260200182805461052c90612283565b80156105795780601f1061054e57610100808354040283529160200191610579565b820191906000526020600020905b81548152906001019060200180831161055c57829003601f168201915b50505050508152602001600582015481526020016006820160009054906101000a900473ffffffffffffffffffffffffffffffffffffffff1673ffffffffffffffffffffffffffffffffffffffff1673ffffffffffffffffffffffffffffffffffffffff16815250509050919050565b60008451116105f757600080fd5b600082511161060557600080fd5b600081511161061357600080fd5b600073ffffffffffffffffffffffffffffffffffffffff163373ffffffffffffffffffffffffffffffffffffffff160361064c57600080fd5b6000831161065957600080fd5b60008081548092919061066b906122e3565b9190505550600160003373ffffffffffffffffffffffffffffffffffffffff1673ffffffffffffffffffffffffffffffffffffffff1681526020019081526020016000206040518060e0016040528060005481526020018681526020018581526020018481526020018381526020014281526020013373ffffffffffffffffffffffffffffffffffffffff16815250908060018154018082558091505060019003906000526020600020906007020160009091909190915060008201518160000155602082015181600101908161074291906124d7565b5060408201518160020155606082015181600301908161076291906124d7565b50608082015181600401908161077891906124d7565b5060a0820151816005015560c08201518160060160006101000a81548173ffffffffffffffffffffffffffffffffffffffff021916908373ffffffffffffffffffffffffffffffffffffffff16021790555050507f8afab45e252455189e0428faed31ed4afc4c187924fd4f30fcf4fef26b5435366000548585858542336040516108099796959493929190611c59565b60405180910390a150505050565b6001602052816000526040600020818154811061083357600080fd5b90600052602060002090600702016000915091505080600001549080600101805461085d90612283565b80601f016020809104026020016040519081016040528092919081815260200182805461088990612283565b80156108d65780601f106108ab576101008083540402835291602001916108d6565b820191906000526020600020905b8154815290600101906020018083116108b957829003601f168201915b5050505050908060020154908060030180546108f190612283565b80601f016020809104026020016040519081016040528092919081815260200182805461091d90612283565b801561096a5780601f1061093f5761010080835404028352916020019161096a565b820191906000526020600020905b81548152906001019060200180831161094d57829003601f168201915b50505050509080600401805461097f90612283565b80601f01602080910402602001604051908101604052809291908181526020018280546109ab90612283565b80156109f85780601f106109cd576101008083540402835291602001916109f8565b820191906000526020600020905b8154815290600101906020018083116109db57829003601f168201915b5050505050908060050154908060060160009054906101000a900473ffffffffffffffffffffffffffffffffffffffff16905087565b6060600360003373ffffffffffffffffffffffffffffffffffffffff1673ffffffffffffffffffffffffffffffffffffffff1681526020019081526020016000208054610a7a90612283565b80601f0160208091040260200160405190810160405280929190818152602001828054610aa690612283565b8015610af35780601f10610ac857610100808354040283529160200191610af3565b820191906000526020600020905b815481529060010190602001808311610ad657829003601f168201915b5050505050905090565b60005481565b60045481565b60026020528160005260406000208181548110610b2557600080fd5b906000526020600020906007020160009150915050806000015490806001018054610b4f90612283565b80601f0160208091040260200160405190810160405280929190818152602001828054610b7b90612283565b8015610bc85780601f10610b9d57610100808354040283529160200191610bc8565b820191906000526020600020905b815481529060010190602001808311610bab57829003601f168201915b505050505090806002015490806003018054610be390612283565b80601f0160208091040260200160405190810160405280929190818152602001828054610c0f90612283565b8015610c5c5780601f10610c3157610100808354040283529160200191610c5c565b820191906000526020600020905b815481529060010190602001808311610c3f57829003601f168201915b505050505090806004018054610c7190612283565b80601f0160208091040260200160405190810160405280929190818152602001828054610c9d90612283565b8015610cea5780601f10610cbf57610100808354040283529160200191610cea565b820191906000526020600020905b815481529060010190602001808311610ccd57829003601f168201915b5050505050908060050154908060060160009054906101000a900473ffffffffffffffffffffffffffffffffffffffff16905087565b6005602052806000526040600020600091509050806000015490806001018054610d4990612283565b80601f0160208091040260200160405190810160405280929190818152602001828054610d7590612283565b8015610dc25780601f10610d9757610100808354040283529160200191610dc2565b820191906000526020600020905b815481529060010190602001808311610da557829003601f168201915b505050505090806002018054610dd790612283565b80601f0160208091040260200160405190810160405280929190818152602001828054610e0390612283565b8015610e505780601f10610e2557610100808354040283529160200191610e50565b820191906000526020600020905b815481529060010190602001808311610e3357829003601f168201915b5050505050905083565b6060600260003373ffffffffffffffffffffffffffffffffffffffff1673ffffffffffffffffffffffffffffffffffffffff168152602001908152602001600020805480602002602001604051908101604052809291908181526020016000905b8282101561111757838290600052602060002090600702016040518060e001604052908160008201548152602001600182018054610ef890612283565b80601f0160208091040260200160405190810160405280929190818152602001828054610f2490612283565b8015610f715780601f10610f4657610100808354040283529160200191610f71565b820191906000526020600020905b815481529060010190602001808311610f5457829003601f168201915b5050505050815260200160028201548152602001600382018054610f9490612283565b80601f0160208091040260200160405190810160405280929190818152602001828054610fc090612283565b801561100d5780601f10610fe25761010080835404028352916020019161100d565b820191906000526020600020905b815481529060010190602001808311610ff057829003601f168201915b5050505050815260200160048201805461102690612283565b80601f016020809104026020016040519081016040528092919081815260200182805461105290612283565b801561109f5780601f106110745761010080835404028352916020019161109f565b820191906000526020600020905b81548152906001019060200180831161108257829003601f168201915b50505050508152602001600582015481526020016006820160009054906101000a900473ffffffffffffffffffffffffffffffffffffffff1673ffffffffffffffffffffffffffffffffffffffff1673ffffffffffffffffffffffffffffffffffffffff168152505081526020019060010190610ebb565b50505050905090565b6000600160003373ffffffffffffffffffffffffffffffffffffffff1673ffffffffffffffffffffffffffffffffffffffff16815260200190815260200160002080549050905090565b6000600360003373ffffffffffffffffffffffffffffffffffffffff1673ffffffffffffffffffffffffffffffffffffffff16815260200190815260200160002080546111b690612283565b9050146111c257600080fd5b80600360003373ffffffffffffffffffffffffffffffffffffffff1673ffffffffffffffffffffffffffffffffffffffff168152602001908152602001600020908161120e91906124d7565b5050565b6003602052806000526040600020600091509050805461123190612283565b80601f016020809104026020016040519081016040528092919081815260200182805461125d90612283565b80156112aa5780601f1061127f576101008083540402835291602001916112aa565b820191906000526020600020905b81548152906001019060200180831161128d57829003601f168201915b505050505081565b6112ba61173f565b600560003373ffffffffffffffffffffffffffffffffffffffff1673ffffffffffffffffffffffffffffffffffffffff1681526020019081526020016000206040518060600160405290816000820154815260200160018201805461131e90612283565b80601f016020809104026020016040519081016040528092919081815260200182805461134a90612283565b80156113975780601f1061136c57610100808354040283529160200191611397565b820191906000526020600020905b81548152906001019060200180831161137a57829003601f168201915b505050505081526020016002820180546113b090612283565b80601f01602080910402602001604051908101604052809291908181526020018280546113dc90612283565b80156114295780601f106113fe57610100808354040283529160200191611429565b820191906000526020600020905b81548152906001019060200180831161140c57829003601f168201915b505050505081525050905090565b6000600260003373ffffffffffffffffffffffffffffffffffffffff1673ffffffffffffffffffffffffffffffffffffffff16815260200190815260200160002080549050905090565b600260008273ffffffffffffffffffffffffffffffffffffffff1673ffffffffffffffffffffffffffffffffffffffff16815260200190815260200160002082908060018154018082558091505060019003906000526020600020906007020160009091909190915060008201518160000155602082015181600101908161150991906124d7565b5060408201518160020155606082015181600301908161152991906124d7565b50608082015181600401908161153f91906124d7565b5060a0820151816005015560c08201518160060160006101000a81548173ffffffffffffffffffffffffffffffffffffffff021916908373ffffffffffffffffffffffffffffffffffffffff16021790555050507fc3fbfea1182e832f4606a9e4bd8e4c76681492cf2b269e9e3f97be409dbf5baf3382846040516115c69392919061260d565b60405180910390a15050565b600060045410156115e257600080fd5b60008251116115f057600080fd5b60008151116115fe57600080fd5b60046000815480929190611611906122e3565b91905055506040518060600160405280600454815260200183815260200182815250600560003373ffffffffffffffffffffffffffffffffffffffff1673ffffffffffffffffffffffffffffffffffffffff16815260200190815260200160002060008201518160000155602082015181600101908161169191906124d7565b5060408201518160020190816116a791906124d7565b509050507fa0bbe9f95f420afc39f44a311153e7d1a4698c125ffc5db6f0e989528b4a223660045483836040516116e093929190611d47565b60405180910390a15050565b6040518060e00160405280600081526020016060815260200160008152602001606081526020016060815260200160008152602001600073ffffffffffffffffffffffffffffffffffffffff1681525090565b60405180606001604052806000815260200160608152602001606081525090565b6000604051905090565b600080fd5b600080fd5b6000819050919050565b61178781611774565b811461179257600080fd5b50565b6000813590506117a48161177e565b92915050565b6000602082840312156117c0576117bf61176a565b5b60006117ce84828501611795565b91505092915050565b6117e081611774565b82525050565b600081519050919050565b600082825260208201905092915050565b60005b83811015611820578082015181840152602081019050611805565b60008484015250505050565b6000601f19601f8301169050919050565b6000611848826117e6565b61185281856117f1565b9350611862818560208601611802565b61186b8161182c565b840191505092915050565b600073ffffffffffffffffffffffffffffffffffffffff82169050919050565b60006118a182611876565b9050919050565b6118b181611896565b82525050565b600060e0830160008301516118cf60008601826117d7565b50602083015184820360208601526118e7828261183d565b91505060408301516118fc60408601826117d7565b5060608301518482036060860152611914828261183d565b9150506080830151848203608086015261192e828261183d565b91505060a083015161194360a08601826117d7565b5060c083015161195660c08601826118a8565b508091505092915050565b6000602082019050818103600083015261197b81846118b7565b905092915050565b600080fd5b600080fd5b7f4e487b7100000000000000000000000000000000000000000000000000000000600052604160045260246000fd5b6119c58261182c565b810181811067ffffffffffffffff821117156119e4576119e361198d565b5b80604052505050565b60006119f7611760565b9050611a0382826119bc565b919050565b600067ffffffffffffffff821115611a2357611a2261198d565b5b611a2c8261182c565b9050602081019050919050565b82818337600083830152505050565b6000611a5b611a5684611a08565b6119ed565b905082815260208101848484011115611a7757611a76611988565b5b611a82848285611a39565b509392505050565b600082601f830112611a9f57611a9e611983565b5b8135611aaf848260208601611a48565b91505092915050565b60008060008060808587031215611ad257611ad161176a565b5b600085013567ffffffffffffffff811115611af057611aef61176f565b5b611afc87828801611a8a565b9450506020611b0d87828801611795565b935050604085013567ffffffffffffffff811115611b2e57611b2d61176f565b5b611b3a87828801611a8a565b925050606085013567ffffffffffffffff811115611b5b57611b5a61176f565b5b611b6787828801611a8a565b91505092959194509250565b6000611b7e82611876565b9050919050565b611b8e81611b73565b8114611b9957600080fd5b50565b600081359050611bab81611b85565b92915050565b60008060408385031215611bc857611bc761176a565b5b6000611bd685828601611b9c565b9250506020611be785828601611795565b9150509250929050565b611bfa81611774565b82525050565b600082825260208201905092915050565b6000611c1c826117e6565b611c268185611c00565b9350611c36818560208601611802565b611c3f8161182c565b840191505092915050565b611c5381611896565b82525050565b600060e082019050611c6e600083018a611bf1565b8181036020830152611c808189611c11565b9050611c8f6040830188611bf1565b8181036060830152611ca18187611c11565b90508181036080830152611cb58186611c11565b9050611cc460a0830185611bf1565b611cd160c0830184611c4a565b98975050505050505050565b60006020820190508181036000830152611cf78184611c11565b905092915050565b6000602082019050611d146000830184611bf1565b92915050565b600060208284031215611d3057611d2f61176a565b5b6000611d3e84828501611b9c565b91505092915050565b6000606082019050611d5c6000830186611bf1565b8181036020830152611d6e8185611c11565b90508181036040830152611d828184611c11565b9050949350505050565b600081519050919050565b600082825260208201905092915050565b6000819050602082019050919050565b600060e083016000830151611dd060008601826117d7565b5060208301518482036020860152611de8828261183d565b9150506040830151611dfd60408601826117d7565b5060608301518482036060860152611e15828261183d565b91505060808301518482036080860152611e2f828261183d565b91505060a0830151611e4460a08601826117d7565b5060c0830151611e5760c08601826118a8565b508091505092915050565b6000611e6e8383611db8565b905092915050565b6000602082019050919050565b6000611e8e82611d8c565b611e988185611d97565b935083602082028501611eaa85611da8565b8060005b85811015611ee65784840389528151611ec78582611e62565b9450611ed283611e76565b925060208a01995050600181019050611eae565b50829750879550505050505092915050565b60006020820190508181036000830152611f128184611e83565b905092915050565b600060208284031215611f3057611f2f61176a565b5b600082013567ffffffffffffffff811115611f4e57611f4d61176f565b5b611f5a84828501611a8a565b91505092915050565b6000606083016000830151611f7b60008601826117d7565b5060208301518482036020860152611f93828261183d565b91505060408301518482036040860152611fad828261183d565b9150508091505092915050565b60006020820190508181036000830152611fd48184611f63565b905092915050565b600060ff82169050919050565b611ff281611fdc565b82525050565b600060208201905061200d6000830184611fe9565b92915050565b600080fd5b600080fd5b61202681611896565b811461203157600080fd5b50565b6000813590506120438161201d565b92915050565b600060e0828403121561205f5761205e612013565b5b61206960e06119ed565b9050600061207984828501611795565b600083015250602082013567ffffffffffffffff81111561209d5761209c612018565b5b6120a984828501611a8a565b60208301525060406120bd84828501611795565b604083015250606082013567ffffffffffffffff8111156120e1576120e0612018565b5b6120ed84828501611a8a565b606083015250608082013567ffffffffffffffff81111561211157612110612018565b5b61211d84828501611a8a565b60808301525060a061213184828501611795565b60a08301525060c061214584828501612034565b60c08301525092915050565b600080604083850312156121685761216761176a565b5b600083013567ffffffffffffffff8111156121865761218561176f565b5b61219285828601612049565b92505060206121a385828601612034565b9150509250929050565b600080604083850312156121c4576121c361176a565b5b600083013567ffffffffffffffff8111156121e2576121e161176f565b5b6121ee85828601611a8a565b925050602083013567ffffffffffffffff81111561220f5761220e61176f565b5b61221b85828601611a8a565b9150509250929050565b7f4e487b7100000000000000000000000000000000000000000000000000000000600052603260045260246000fd5b7f4e487b7100000000000000000000000000000000000000000000000000000000600052602260045260246000fd5b6000600282049050600182168061229b57607f821691505b6020821081036122ae576122ad612254565b5b50919050565b7f4e487b7100000000000000000000000000000000000000000000000000000000600052601160045260246000fd5b60006122ee82611774565b91507fffffffffffffffffffffffffffffffffffffffffffffffffffffffffffffffff82036123205761231f6122b4565b5b600182019050919050565b60008190508160005260206000209050919050565b60006020601f8301049050919050565b600082821b905092915050565b60006008830261238d7fffffffffffffffffffffffffffffffffffffffffffffffffffffffffffffffff82612350565b6123978683612350565b95508019841693508086168417925050509392505050565b6000819050919050565b60006123d46123cf6123ca84611774565b6123af565b611774565b9050919050565b6000819050919050565b6123ee836123b9565b6124026123fa826123db565b84845461235d565b825550505050565b600090565b61241761240a565b6124228184846123e5565b505050565b5b818110156124465761243b60008261240f565b600181019050612428565b5050565b601f82111561248b5761245c8161232b565b61246584612340565b81016020851015612474578190505b61248861248085612340565b830182612427565b50505b505050565b600082821c905092915050565b60006124ae60001984600802612490565b1980831691505092915050565b60006124c7838361249d565b9150826002028217905092915050565b6124e0826117e6565b67ffffffffffffffff8111156124f9576124f861198d565b5b6125038254612283565b61250e82828561244a565b600060209050601f831160018114612541576000841561252f578287015190505b61253985826124bb565b8655506125a1565b601f19841661254f8661232b565b60005b8281101561257757848901518255600182019150602085019450602081019050612552565b868310156125945784890151612590601f89168261249d565b8355505b6001600288020188555050505b505050505050565b6125b281611b73565b82525050565b60006125d36125ce6125c984611876565b6123af565b611876565b9050919050565b60006125e5826125b8565b9050919050565b60006125f7826125da565b9050919050565b612607816125ec565b82525050565b600060608201905061262260008301866125a9565b61262f60208301856125fe565b818103604083015261264181846118b7565b905094935050505056fea2646970667358221220215e18c1dd4842c1c9efa8ed69c7c76a7d60ca3c583e67a47f5c02170e842bc464736f6c63430008110033",
  "immutableReferences": {},
  "source": "// SPDX-License-Identifier: GPL-3.0\r\npragma solidity ^0.8.4;\r\nimport \"./User.sol\";\r\n\r\ncontract Doctor is User {\r\n    uint public docCount = 0;\r\n    struct doc {\r\n        uint256 id;\r\n        string firstName;\r\n        string lastName;\r\n    }\r\n    mapping(address => doc) public docList;\r\n\r\n    constructor() {}\r\n\r\n    event DocRegistered(uint256 _docid, string _firstName, string _lastName);\r\n\r\n    function registerDoc(string memory _firstName, string memory _lastName)\r\n        public\r\n    {\r\n        require((docCount >= 0)); // Make sure the file hash exists\r\n\r\n        require((bytes(_firstName).length > 0)); // Make sure file type exists\r\n\r\n        require((bytes(_lastName).length > 0));\r\n\r\n        docCount++;\r\n\r\n        docList[msg.sender] = doc(docCount, _firstName, _lastName);\r\n\r\n        emit DocRegistered(docCount, _firstName, _lastName);\r\n    }\r\n\r\n    function getDoc() public view returns (doc memory) {\r\n        return docList[msg.sender];\r\n    }\r\n}\r\n",
  "sourcePath": "C:\\Users\\Varun Koranne\\Desktop\\WebDev\\SE\\MedChain\\truffleServer\\contracts\\Doctor.sol",
  "compiler": {
    "name": "solc",
    "version": "0.8.17+commit.8df45f5f.Emscripten.clang"
  },
  "schemaVersion": "3.4.4",
  "updatedAt": "2022-11-06T16:34:15.920Z",
  "devdoc": {
    "kind": "dev",
    "methods": {},
    "version": 1
  },
  "userdoc": {
    "kind": "user",
    "methods": {},
    "version": 1
  }
}