{
  "contractName": "Patient",
  "abi": [
    {
      "inputs": [],
      "stateMutability": "nonpayable",
      "type": "constructor"
    },
    {
      "anonymous": false,
      "inputs": [
        {
          "indexed": false,
          "internalType": "address",
          "name": "sender",
          "type": "address"
        },
        {
          "indexed": false,
          "internalType": "address",
          "name": "receiver",
          "type": "address"
        },
        {
          "components": [
            {
              "internalType": "uint256",
              "name": "field",
              "type": "uint256"
            },
            {
              "internalType": "string",
              "name": "fileHash",
              "type": "string"
            },
            {
              "internalType": "uint256",
              "name": "fileSize",
              "type": "uint256"
            },
            {
              "internalType": "string",
              "name": "fileType",
              "type": "string"
            },
            {
              "internalType": "string",
              "name": "fileName",
              "type": "string"
            },
            {
              "internalType": "uint256",
              "name": "uploadTime",
              "type": "uint256"
            },
            {
              "internalType": "address payable",
              "name": "uploader",
              "type": "address"
            }
          ],
          "indexed": false,
          "internalType": "struct User.File",
          "name": "file",
          "type": "tuple"
        }
      ],
      "name": "FileShared",
      "type": "event"
    },
    {
      "anonymous": false,
      "inputs": [
        {
          "indexed": false,
          "internalType": "uint256",
          "name": "field",
          "type": "uint256"
        },
        {
          "indexed": false,
          "internalType": "string",
          "name": "fileHash",
          "type": "string"
        },
        {
          "indexed": false,
          "internalType": "uint256",
          "name": "fileSize",
          "type": "uint256"
        },
        {
          "indexed": false,
          "internalType": "string",
          "name": "fileType",
          "type": "string"
        },
        {
          "indexed": false,
          "internalType": "string",
          "name": "fileName",
          "type": "string"
        },
        {
          "indexed": false,
          "internalType": "uint256",
          "name": "uploadTime",
          "type": "uint256"
        },
        {
          "indexed": false,
          "internalType": "address payable",
          "name": "uploader",
          "type": "address"
        }
      ],
      "name": "FileUploaded",
      "type": "event"
    },
    {
      "anonymous": false,
      "inputs": [
        {
          "indexed": false,
          "internalType": "uint256",
          "name": "_patientid",
          "type": "uint256"
        },
        {
          "indexed": false,
          "internalType": "string",
          "name": "_firstName",
          "type": "string"
        },
        {
          "indexed": false,
          "internalType": "string",
          "name": "_lastName",
          "type": "string"
        }
      ],
      "name": "PatientRegistered",
      "type": "event"
    },
    {
      "inputs": [],
      "name": "fileCount",
      "outputs": [
        {
          "internalType": "uint256",
          "name": "",
          "type": "uint256"
        }
      ],
      "stateMutability": "view",
      "type": "function"
    },
    {
      "inputs": [
        {
          "internalType": "address",
          "name": "",
          "type": "address"
        },
        {
          "internalType": "uint256",
          "name": "",
          "type": "uint256"
        }
      ],
      "name": "files",
      "outputs": [
        {
          "internalType": "uint256",
          "name": "field",
          "type": "uint256"
        },
        {
          "internalType": "string",
          "name": "fileHash",
          "type": "string"
        },
        {
          "internalType": "uint256",
          "name": "fileSize",
          "type": "uint256"
        },
        {
          "internalType": "string",
          "name": "fileType",
          "type": "string"
        },
        {
          "internalType": "string",
          "name": "fileName",
          "type": "string"
        },
        {
          "internalType": "uint256",
          "name": "uploadTime",
          "type": "uint256"
        },
        {
          "internalType": "address payable",
          "name": "uploader",
          "type": "address"
        }
      ],
      "stateMutability": "view",
      "type": "function"
    },
    {
      "inputs": [
        {
          "internalType": "uint256",
          "name": "index",
          "type": "uint256"
        }
      ],
      "name": "getFiles",
      "outputs": [
        {
          "components": [
            {
              "internalType": "uint256",
              "name": "field",
              "type": "uint256"
            },
            {
              "internalType": "string",
              "name": "fileHash",
              "type": "string"
            },
            {
              "internalType": "uint256",
              "name": "fileSize",
              "type": "uint256"
            },
            {
              "internalType": "string",
              "name": "fileType",
              "type": "string"
            },
            {
              "internalType": "string",
              "name": "fileName",
              "type": "string"
            },
            {
              "internalType": "uint256",
              "name": "uploadTime",
              "type": "uint256"
            },
            {
              "internalType": "address payable",
              "name": "uploader",
              "type": "address"
            }
          ],
          "internalType": "struct User.File",
          "name": "",
          "type": "tuple"
        }
      ],
      "stateMutability": "view",
      "type": "function"
    },
    {
      "inputs": [],
      "name": "getFilesCount",
      "outputs": [
        {
          "internalType": "uint256",
          "name": "",
          "type": "uint256"
        }
      ],
      "stateMutability": "view",
      "type": "function"
    },
    {
      "inputs": [],
      "name": "getSharedFiles",
      "outputs": [
        {
          "components": [
            {
              "internalType": "uint256",
              "name": "field",
              "type": "uint256"
            },
            {
              "internalType": "string",
              "name": "fileHash",
              "type": "string"
            },
            {
              "internalType": "uint256",
              "name": "fileSize",
              "type": "uint256"
            },
            {
              "internalType": "string",
              "name": "fileType",
              "type": "string"
            },
            {
              "internalType": "string",
              "name": "fileName",
              "type": "string"
            },
            {
              "internalType": "uint256",
              "name": "uploadTime",
              "type": "uint256"
            },
            {
              "internalType": "address payable",
              "name": "uploader",
              "type": "address"
            }
          ],
          "internalType": "struct User.File[]",
          "name": "",
          "type": "tuple[]"
        }
      ],
      "stateMutability": "view",
      "type": "function"
    },
    {
      "inputs": [],
      "name": "getSharedFilesCount",
      "outputs": [
        {
          "internalType": "uint8",
          "name": "",
          "type": "uint8"
        }
      ],
      "stateMutability": "view",
      "type": "function"
    },
    {
      "inputs": [],
      "name": "getUserType",
      "outputs": [
        {
          "internalType": "string",
          "name": "",
          "type": "string"
        }
      ],
      "stateMutability": "view",
      "type": "function"
    },
    {
      "inputs": [],
      "name": "patientCount",
      "outputs": [
        {
          "internalType": "uint256",
          "name": "",
          "type": "uint256"
        }
      ],
      "stateMutability": "view",
      "type": "function"
    },
    {
      "inputs": [
        {
          "internalType": "address",
          "name": "",
          "type": "address"
        }
      ],
      "name": "patientList",
      "outputs": [
        {
          "internalType": "uint256",
          "name": "id",
          "type": "uint256"
        },
        {
          "internalType": "string",
          "name": "firstName",
          "type": "string"
        },
        {
          "internalType": "string",
          "name": "lastName",
          "type": "string"
        }
      ],
      "stateMutability": "view",
      "type": "function"
    },
    {
      "inputs": [
        {
          "internalType": "string",
          "name": "_userType",
          "type": "string"
        }
      ],
      "name": "setUserType",
      "outputs": [],
      "stateMutability": "nonpayable",
      "type": "function"
    },
    {
      "inputs": [
        {
          "components": [
            {
              "internalType": "uint256",
              "name": "field",
              "type": "uint256"
            },
            {
              "internalType": "string",
              "name": "fileHash",
              "type": "string"
            },
            {
              "internalType": "uint256",
              "name": "fileSize",
              "type": "uint256"
            },
            {
              "internalType": "string",
              "name": "fileType",
              "type": "string"
            },
            {
              "internalType": "string",
              "name": "fileName",
              "type": "string"
            },
            {
              "internalType": "uint256",
              "name": "uploadTime",
              "type": "uint256"
            },
            {
              "internalType": "address payable",
              "name": "uploader",
              "type": "address"
            }
          ],
          "internalType": "struct User.File",
          "name": "_file",
          "type": "tuple"
        },
        {
          "internalType": "address payable",
          "name": "_receiver",
          "type": "address"
        }
      ],
      "name": "shareFile",
      "outputs": [],
      "stateMutability": "nonpayable",
      "type": "function"
    },
    {
      "inputs": [
        {
          "internalType": "address",
          "name": "",
          "type": "address"
        },
        {
          "internalType": "uint256",
          "name": "",
          "type": "uint256"
        }
      ],
      "name": "sharedFiles",
      "outputs": [
        {
          "internalType": "uint256",
          "name": "field",
          "type": "uint256"
        },
        {
          "internalType": "string",
          "name": "fileHash",
          "type": "string"
        },
        {
          "internalType": "uint256",
          "name": "fileSize",
          "type": "uint256"
        },
        {
          "internalType": "string",
          "name": "fileType",
          "type": "string"
        },
        {
          "internalType": "string",
          "name": "fileName",
          "type": "string"
        },
        {
          "internalType": "uint256",
          "name": "uploadTime",
          "type": "uint256"
        },
        {
          "internalType": "address payable",
          "name": "uploader",
          "type": "address"
        }
      ],
      "stateMutability": "view",
      "type": "function"
    },
    {
      "inputs": [
        {
          "internalType": "string",
          "name": "_fileHash",
          "type": "string"
        },
        {
          "internalType": "uint256",
          "name": "_fileSize",
          "type": "uint256"
        },
        {
          "internalType": "string",
          "name": "_fileType",
          "type": "string"
        },
        {
          "internalType": "string",
          "name": "_fileName",
          "type": "string"
        }
      ],
      "name": "uploadFile",
      "outputs": [],
      "stateMutability": "nonpayable",
      "type": "function"
    },
    {
      "inputs": [
        {
          "internalType": "address",
          "name": "",
          "type": "address"
        }
      ],
      "name": "userType",
      "outputs": [
        {
          "internalType": "string",
          "name": "",
          "type": "string"
        }
      ],
      "stateMutability": "view",
      "type": "function"
    },
    {
      "inputs": [
        {
          "internalType": "string",
          "name": "_firstName",
          "type": "string"
        },
        {
          "internalType": "string",
          "name": "_lastName",
          "type": "string"
        }
      ],
      "name": "registerPatient",
      "outputs": [],
      "stateMutability": "nonpayable",
      "type": "function"
    },
    {
      "inputs": [],
      "name": "getPatient",
      "outputs": [
        {
          "components": [
            {
              "internalType": "uint256",
              "name": "id",
              "type": "uint256"
            },
            {
              "internalType": "string",
              "name": "firstName",
              "type": "string"
            },
            {
              "internalType": "string",
              "name": "lastName",
              "type": "string"
            }
          ],
          "internalType": "struct Patient.patient",
          "name": "",
          "type": "tuple"
        }
      ],
      "stateMutability": "view",
      "type": "function"
    }
  ],
  "bytecode": "0x608060405260008055600060045534801561001957600080fd5b50612681806100296000396000f3fe608060405234801561001057600080fd5b50600436106101005760003560e01c8063914e314411610097578063b83458b011610066578063b83458b0146102a9578063da2e626f146102d9578063ea5530da1461030b578063edd490b41461032957610100565b8063914e314414610233578063a0303c4114610251578063a3322a121461026f578063b12c9d941461028d57610100565b806343953519116100d357806343953519146101a557806356041432146101c35780637b0f9a36146101f957806380911fa41461021757610100565b806312506f4d1461010557806320f21708146101355780632ba6978e146101515780634199007714610187575b600080fd5b61011f600480360381019061011a91906117aa565b610345565b60405161012c9190611961565b60405180910390f35b61014f600480360381019061014a9190611ab8565b6105e9565b005b61016b60048036038101906101669190611bb1565b610817565b60405161017e9796959493929190611c59565b60405180910390f35b61018f610a2e565b60405161019c9190611cdd565b60405180910390f35b6101ad610afd565b6040516101ba9190611cff565b60405180910390f35b6101dd60048036038101906101d89190611bb1565b610b03565b6040516101f09796959493929190611c59565b60405180910390f35b610201610d1a565b60405161020e9190611d71565b60405180910390f35b610231600480360381019061022c9190611d93565b610e9f565b005b61023b610fb9565b6040516102489190611f77565b60405180910390f35b61025961127f565b6040516102669190611cff565b60405180910390f35b610277611285565b6040516102849190611cff565b60405180910390f35b6102a760048036038101906102a29190611f99565b6112cf565b005b6102c360048036038101906102be9190611fe2565b611377565b6040516102d09190611cdd565b60405180910390f35b6102f360048036038101906102ee9190611fe2565b611417565b6040516103029392919061200f565b60405180910390f35b610313611551565b6040516103209190612070565b60405180910390f35b610343600480360381019061033e91906121c9565b61159b565b005b61034d6116ec565b600160003373ffffffffffffffffffffffffffffffffffffffff1673ffffffffffffffffffffffffffffffffffffffff16815260200190815260200160002060008154811061039f5761039e612225565b5b90600052602060002090600702016040518060e0016040529081600082015481526020016001820180546103d290612283565b80601f01602080910402602001604051908101604052809291908181526020018280546103fe90612283565b801561044b5780601f106104205761010080835404028352916020019161044b565b820191906000526020600020905b81548152906001019060200180831161042e57829003601f168201915b505050505081526020016002820154815260200160038201805461046e90612283565b80601f016020809104026020016040519081016040528092919081815260200182805461049a90612283565b80156104e75780601f106104bc576101008083540402835291602001916104e7565b820191906000526020600020905b8154815290600101906020018083116104ca57829003601f168201915b5050505050815260200160048201805461050090612283565b80601f016020809104026020016040519081016040528092919081815260200182805461052c90612283565b80156105795780601f1061054e57610100808354040283529160200191610579565b820191906000526020600020905b81548152906001019060200180831161055c57829003601f168201915b50505050508152602001600582015481526020016006820160009054906101000a900473ffffffffffffffffffffffffffffffffffffffff1673ffffffffffffffffffffffffffffffffffffffff1673ffffffffffffffffffffffffffffffffffffffff16815250509050919050565b60008451116105f757600080fd5b600082511161060557600080fd5b600081511161061357600080fd5b600073ffffffffffffffffffffffffffffffffffffffff163373ffffffffffffffffffffffffffffffffffffffff160361064c57600080fd5b6000831161065957600080fd5b60008081548092919061066b906122e3565b9190505550600160003373ffffffffffffffffffffffffffffffffffffffff1673ffffffffffffffffffffffffffffffffffffffff1681526020019081526020016000206040518060e0016040528060005481526020018681526020018581526020018481526020018381526020014281526020013373ffffffffffffffffffffffffffffffffffffffff16815250908060018154018082558091505060019003906000526020600020906007020160009091909190915060008201518160000155602082015181600101908161074291906124d7565b5060408201518160020155606082015181600301908161076291906124d7565b50608082015181600401908161077891906124d7565b5060a0820151816005015560c08201518160060160006101000a81548173ffffffffffffffffffffffffffffffffffffffff021916908373ffffffffffffffffffffffffffffffffffffffff16021790555050507f8afab45e252455189e0428faed31ed4afc4c187924fd4f30fcf4fef26b5435366000548585858542336040516108099796959493929190611c59565b60405180910390a150505050565b6001602052816000526040600020818154811061083357600080fd5b90600052602060002090600702016000915091505080600001549080600101805461085d90612283565b80601f016020809104026020016040519081016040528092919081815260200182805461088990612283565b80156108d65780601f106108ab576101008083540402835291602001916108d6565b820191906000526020600020905b8154815290600101906020018083116108b957829003601f168201915b5050505050908060020154908060030180546108f190612283565b80601f016020809104026020016040519081016040528092919081815260200182805461091d90612283565b801561096a5780601f1061093f5761010080835404028352916020019161096a565b820191906000526020600020905b81548152906001019060200180831161094d57829003601f168201915b50505050509080600401805461097f90612283565b80601f01602080910402602001604051908101604052809291908181526020018280546109ab90612283565b80156109f85780601f106109cd576101008083540402835291602001916109f8565b820191906000526020600020905b8154815290600101906020018083116109db57829003601f168201915b5050505050908060050154908060060160009054906101000a900473ffffffffffffffffffffffffffffffffffffffff16905087565b6060600360003373ffffffffffffffffffffffffffffffffffffffff1673ffffffffffffffffffffffffffffffffffffffff1681526020019081526020016000208054610a7a90612283565b80601f0160208091040260200160405190810160405280929190818152602001828054610aa690612283565b8015610af35780601f10610ac857610100808354040283529160200191610af3565b820191906000526020600020905b815481529060010190602001808311610ad657829003601f168201915b5050505050905090565b60005481565b60026020528160005260406000208181548110610b1f57600080fd5b906000526020600020906007020160009150915050806000015490806001018054610b4990612283565b80601f0160208091040260200160405190810160405280929190818152602001828054610b7590612283565b8015610bc25780601f10610b9757610100808354040283529160200191610bc2565b820191906000526020600020905b815481529060010190602001808311610ba557829003601f168201915b505050505090806002015490806003018054610bdd90612283565b80601f0160208091040260200160405190810160405280929190818152602001828054610c0990612283565b8015610c565780601f10610c2b57610100808354040283529160200191610c56565b820191906000526020600020905b815481529060010190602001808311610c3957829003601f168201915b505050505090806004018054610c6b90612283565b80601f0160208091040260200160405190810160405280929190818152602001828054610c9790612283565b8015610ce45780601f10610cb957610100808354040283529160200191610ce4565b820191906000526020600020905b815481529060010190602001808311610cc757829003601f168201915b5050505050908060050154908060060160009054906101000a900473ffffffffffffffffffffffffffffffffffffffff16905087565b610d2261173f565b600560003373ffffffffffffffffffffffffffffffffffffffff1673ffffffffffffffffffffffffffffffffffffffff16815260200190815260200160002060405180606001604052908160008201548152602001600182018054610d8690612283565b80601f0160208091040260200160405190810160405280929190818152602001828054610db290612283565b8015610dff5780601f10610dd457610100808354040283529160200191610dff565b820191906000526020600020905b815481529060010190602001808311610de257829003601f168201915b50505050508152602001600282018054610e1890612283565b80601f0160208091040260200160405190810160405280929190818152602001828054610e4490612283565b8015610e915780601f10610e6657610100808354040283529160200191610e91565b820191906000526020600020905b815481529060010190602001808311610e7457829003601f168201915b505050505081525050905090565b60006004541015610eaf57600080fd5b6000825111610ebd57600080fd5b6000815111610ecb57600080fd5b60046000815480929190610ede906122e3565b91905055506040518060600160405280600454815260200183815260200182815250600560003373ffffffffffffffffffffffffffffffffffffffff1673ffffffffffffffffffffffffffffffffffffffff168152602001908152602001600020600082015181600001556020820151816001019081610f5e91906124d7565b506040820151816002019081610f7491906124d7565b509050507f5f673cc9bae30af09647bf6b05c75bfe500249fc12ad0a9d7a8dba814d76652e6004548383604051610fad9392919061200f565b60405180910390a15050565b6060600260003373ffffffffffffffffffffffffffffffffffffffff1673ffffffffffffffffffffffffffffffffffffffff168152602001908152602001600020805480602002602001604051908101604052809291908181526020016000905b8282101561127657838290600052602060002090600702016040518060e00160405290816000820154815260200160018201805461105790612283565b80601f016020809104026020016040519081016040528092919081815260200182805461108390612283565b80156110d05780601f106110a5576101008083540402835291602001916110d0565b820191906000526020600020905b8154815290600101906020018083116110b357829003601f168201915b50505050508152602001600282015481526020016003820180546110f390612283565b80601f016020809104026020016040519081016040528092919081815260200182805461111f90612283565b801561116c5780601f106111415761010080835404028352916020019161116c565b820191906000526020600020905b81548152906001019060200180831161114f57829003601f168201915b5050505050815260200160048201805461118590612283565b80601f01602080910402602001604051908101604052809291908181526020018280546111b190612283565b80156111fe5780601f106111d3576101008083540402835291602001916111fe565b820191906000526020600020905b8154815290600101906020018083116111e157829003601f168201915b50505050508152602001600582015481526020016006820160009054906101000a900473ffffffffffffffffffffffffffffffffffffffff1673ffffffffffffffffffffffffffffffffffffffff1673ffffffffffffffffffffffffffffffffffffffff16815250508152602001906001019061101a565b50505050905090565b60045481565b6000600160003373ffffffffffffffffffffffffffffffffffffffff1673ffffffffffffffffffffffffffffffffffffffff16815260200190815260200160002080549050905090565b6000600360003373ffffffffffffffffffffffffffffffffffffffff1673ffffffffffffffffffffffffffffffffffffffff168152602001908152602001600020805461131b90612283565b90501461132757600080fd5b80600360003373ffffffffffffffffffffffffffffffffffffffff1673ffffffffffffffffffffffffffffffffffffffff168152602001908152602001600020908161137391906124d7565b5050565b6003602052806000526040600020600091509050805461139690612283565b80601f01602080910402602001604051908101604052809291908181526020018280546113c290612283565b801561140f5780601f106113e45761010080835404028352916020019161140f565b820191906000526020600020905b8154815290600101906020018083116113f257829003601f168201915b505050505081565b600560205280600052604060002060009150905080600001549080600101805461144090612283565b80601f016020809104026020016040519081016040528092919081815260200182805461146c90612283565b80156114b95780601f1061148e576101008083540402835291602001916114b9565b820191906000526020600020905b81548152906001019060200180831161149c57829003601f168201915b5050505050908060020180546114ce90612283565b80601f01602080910402602001604051908101604052809291908181526020018280546114fa90612283565b80156115475780601f1061151c57610100808354040283529160200191611547565b820191906000526020600020905b81548152906001019060200180831161152a57829003601f168201915b5050505050905083565b6000600260003373ffffffffffffffffffffffffffffffffffffffff1673ffffffffffffffffffffffffffffffffffffffff16815260200190815260200160002080549050905090565b600260008273ffffffffffffffffffffffffffffffffffffffff1673ffffffffffffffffffffffffffffffffffffffff16815260200190815260200160002082908060018154018082558091505060019003906000526020600020906007020160009091909190915060008201518160000155602082015181600101908161162391906124d7565b5060408201518160020155606082015181600301908161164391906124d7565b50608082015181600401908161165991906124d7565b5060a0820151816005015560c08201518160060160006101000a81548173ffffffffffffffffffffffffffffffffffffffff021916908373ffffffffffffffffffffffffffffffffffffffff16021790555050507fc3fbfea1182e832f4606a9e4bd8e4c76681492cf2b269e9e3f97be409dbf5baf3382846040516116e09392919061260d565b60405180910390a15050565b6040518060e00160405280600081526020016060815260200160008152602001606081526020016060815260200160008152602001600073ffffffffffffffffffffffffffffffffffffffff1681525090565b60405180606001604052806000815260200160608152602001606081525090565b6000604051905090565b600080fd5b600080fd5b6000819050919050565b61178781611774565b811461179257600080fd5b50565b6000813590506117a48161177e565b92915050565b6000602082840312156117c0576117bf61176a565b5b60006117ce84828501611795565b91505092915050565b6117e081611774565b82525050565b600081519050919050565b600082825260208201905092915050565b60005b83811015611820578082015181840152602081019050611805565b60008484015250505050565b6000601f19601f8301169050919050565b6000611848826117e6565b61185281856117f1565b9350611862818560208601611802565b61186b8161182c565b840191505092915050565b600073ffffffffffffffffffffffffffffffffffffffff82169050919050565b60006118a182611876565b9050919050565b6118b181611896565b82525050565b600060e0830160008301516118cf60008601826117d7565b50602083015184820360208601526118e7828261183d565b91505060408301516118fc60408601826117d7565b5060608301518482036060860152611914828261183d565b9150506080830151848203608086015261192e828261183d565b91505060a083015161194360a08601826117d7565b5060c083015161195660c08601826118a8565b508091505092915050565b6000602082019050818103600083015261197b81846118b7565b905092915050565b600080fd5b600080fd5b7f4e487b7100000000000000000000000000000000000000000000000000000000600052604160045260246000fd5b6119c58261182c565b810181811067ffffffffffffffff821117156119e4576119e361198d565b5b80604052505050565b60006119f7611760565b9050611a0382826119bc565b919050565b600067ffffffffffffffff821115611a2357611a2261198d565b5b611a2c8261182c565b9050602081019050919050565b82818337600083830152505050565b6000611a5b611a5684611a08565b6119ed565b905082815260208101848484011115611a7757611a76611988565b5b611a82848285611a39565b509392505050565b600082601f830112611a9f57611a9e611983565b5b8135611aaf848260208601611a48565b91505092915050565b60008060008060808587031215611ad257611ad161176a565b5b600085013567ffffffffffffffff811115611af057611aef61176f565b5b611afc87828801611a8a565b9450506020611b0d87828801611795565b935050604085013567ffffffffffffffff811115611b2e57611b2d61176f565b5b611b3a87828801611a8a565b925050606085013567ffffffffffffffff811115611b5b57611b5a61176f565b5b611b6787828801611a8a565b91505092959194509250565b6000611b7e82611876565b9050919050565b611b8e81611b73565b8114611b9957600080fd5b50565b600081359050611bab81611b85565b92915050565b60008060408385031215611bc857611bc761176a565b5b6000611bd685828601611b9c565b9250506020611be785828601611795565b9150509250929050565b611bfa81611774565b82525050565b600082825260208201905092915050565b6000611c1c826117e6565b611c268185611c00565b9350611c36818560208601611802565b611c3f8161182c565b840191505092915050565b611c5381611896565b82525050565b600060e082019050611c6e600083018a611bf1565b8181036020830152611c808189611c11565b9050611c8f6040830188611bf1565b8181036060830152611ca18187611c11565b90508181036080830152611cb58186611c11565b9050611cc460a0830185611bf1565b611cd160c0830184611c4a565b98975050505050505050565b60006020820190508181036000830152611cf78184611c11565b905092915050565b6000602082019050611d146000830184611bf1565b92915050565b6000606083016000830151611d3260008601826117d7565b5060208301518482036020860152611d4a828261183d565b91505060408301518482036040860152611d64828261183d565b9150508091505092915050565b60006020820190508181036000830152611d8b8184611d1a565b905092915050565b60008060408385031215611daa57611da961176a565b5b600083013567ffffffffffffffff811115611dc857611dc761176f565b5b611dd485828601611a8a565b925050602083013567ffffffffffffffff811115611df557611df461176f565b5b611e0185828601611a8a565b9150509250929050565b600081519050919050565b600082825260208201905092915050565b6000819050602082019050919050565b600060e083016000830151611e4f60008601826117d7565b5060208301518482036020860152611e67828261183d565b9150506040830151611e7c60408601826117d7565b5060608301518482036060860152611e94828261183d565b91505060808301518482036080860152611eae828261183d565b91505060a0830151611ec360a08601826117d7565b5060c0830151611ed660c08601826118a8565b508091505092915050565b6000611eed8383611e37565b905092915050565b6000602082019050919050565b6000611f0d82611e0b565b611f178185611e16565b935083602082028501611f2985611e27565b8060005b85811015611f655784840389528151611f468582611ee1565b9450611f5183611ef5565b925060208a01995050600181019050611f2d565b50829750879550505050505092915050565b60006020820190508181036000830152611f918184611f02565b905092915050565b600060208284031215611faf57611fae61176a565b5b600082013567ffffffffffffffff811115611fcd57611fcc61176f565b5b611fd984828501611a8a565b91505092915050565b600060208284031215611ff857611ff761176a565b5b600061200684828501611b9c565b91505092915050565b60006060820190506120246000830186611bf1565b81810360208301526120368185611c11565b9050818103604083015261204a8184611c11565b9050949350505050565b600060ff82169050919050565b61206a81612054565b82525050565b60006020820190506120856000830184612061565b92915050565b600080fd5b600080fd5b61209e81611896565b81146120a957600080fd5b50565b6000813590506120bb81612095565b92915050565b600060e082840312156120d7576120d661208b565b5b6120e160e06119ed565b905060006120f184828501611795565b600083015250602082013567ffffffffffffffff81111561211557612114612090565b5b61212184828501611a8a565b602083015250604061213584828501611795565b604083015250606082013567ffffffffffffffff81111561215957612158612090565b5b61216584828501611a8a565b606083015250608082013567ffffffffffffffff81111561218957612188612090565b5b61219584828501611a8a565b60808301525060a06121a984828501611795565b60a08301525060c06121bd848285016120ac565b60c08301525092915050565b600080604083850312156121e0576121df61176a565b5b600083013567ffffffffffffffff8111156121fe576121fd61176f565b5b61220a858286016120c1565b925050602061221b858286016120ac565b9150509250929050565b7f4e487b7100000000000000000000000000000000000000000000000000000000600052603260045260246000fd5b7f4e487b7100000000000000000000000000000000000000000000000000000000600052602260045260246000fd5b6000600282049050600182168061229b57607f821691505b6020821081036122ae576122ad612254565b5b50919050565b7f4e487b7100000000000000000000000000000000000000000000000000000000600052601160045260246000fd5b60006122ee82611774565b91507fffffffffffffffffffffffffffffffffffffffffffffffffffffffffffffffff82036123205761231f6122b4565b5b600182019050919050565b60008190508160005260206000209050919050565b60006020601f8301049050919050565b600082821b905092915050565b60006008830261238d7fffffffffffffffffffffffffffffffffffffffffffffffffffffffffffffffff82612350565b6123978683612350565b95508019841693508086168417925050509392505050565b6000819050919050565b60006123d46123cf6123ca84611774565b6123af565b611774565b9050919050565b6000819050919050565b6123ee836123b9565b6124026123fa826123db565b84845461235d565b825550505050565b600090565b61241761240a565b6124228184846123e5565b505050565b5b818110156124465761243b60008261240f565b600181019050612428565b5050565b601f82111561248b5761245c8161232b565b61246584612340565b81016020851015612474578190505b61248861248085612340565b830182612427565b50505b505050565b600082821c905092915050565b60006124ae60001984600802612490565b1980831691505092915050565b60006124c7838361249d565b9150826002028217905092915050565b6124e0826117e6565b67ffffffffffffffff8111156124f9576124f861198d565b5b6125038254612283565b61250e82828561244a565b600060209050601f831160018114612541576000841561252f578287015190505b61253985826124bb565b8655506125a1565b601f19841661254f8661232b565b60005b8281101561257757848901518255600182019150602085019450602081019050612552565b868310156125945784890151612590601f89168261249d565b8355505b6001600288020188555050505b505050505050565b6125b281611b73565b82525050565b60006125d36125ce6125c984611876565b6123af565b611876565b9050919050565b60006125e5826125b8565b9050919050565b60006125f7826125da565b9050919050565b612607816125ec565b82525050565b600060608201905061262260008301866125a9565b61262f60208301856125fe565b818103604083015261264181846118b7565b905094935050505056fea2646970667358221220a3aca2c2026ed064e5104b05b099b0a114ff1bcac7e33c3641b682c71540823f64736f6c63430008110033",
  "immutableReferences": {},
  "source": "// SPDX-License-Identifier: GPL-3.0\r\npragma solidity ^0.8.4;\r\nimport \"./User.sol\";\r\n\r\ncontract Patient is User {\r\n    uint public patientCount = 0;\r\n    struct patient {\r\n        uint256 id;\r\n        string firstName;\r\n        string lastName;\r\n    }\r\n    mapping(address => patient) public patientList;\r\n\r\n    event PatientRegistered(\r\n        uint256 _patientid,\r\n        string _firstName,\r\n        string _lastName\r\n    );\r\n\r\n    function registerPatient(string memory _firstName, string memory _lastName)\r\n        public\r\n    {\r\n        require((patientCount >= 0)); // Make sure the file hash exists\r\n\r\n        require((bytes(_firstName).length > 0)); // Make sure file type exists\r\n\r\n        require((bytes(_lastName).length > 0));\r\n\r\n        patientCount++;\r\n\r\n        patientList[msg.sender] = patient(patientCount, _firstName, _lastName);\r\n\r\n        emit PatientRegistered(patientCount, _firstName, _lastName);\r\n    }\r\n\r\n    function getPatient() public view returns (patient memory) {\r\n        return patientList[msg.sender];\r\n    }\r\n\r\n    constructor() {}\r\n}\r\n",
  "sourcePath": "C:\\Users\\Varun Koranne\\Desktop\\WebDev\\SE\\MedChain\\truffleServer\\contracts\\Patient.sol",
  "compiler": {
    "name": "solc",
    "version": "0.8.17+commit.8df45f5f.Emscripten.clang"
  },
  "schemaVersion": "3.4.4",
  "updatedAt": "2022-11-06T16:34:15.956Z",
  "devdoc": {
    "kind": "dev",
    "methods": {},
    "version": 1
  },
  "userdoc": {
    "kind": "user",
    "methods": {},
    "version": 1
  }
}