{
  "contractName": "User",
  "abi": [
    {
      "inputs": [],
      "stateMutability": "nonpayable",
      "type": "constructor"
    },
    {
      "anonymous": false,
      "inputs": [
        {
          "indexed": false,
          "internalType": "address",
          "name": "sender",
          "type": "address"
        },
        {
          "indexed": false,
          "internalType": "address",
          "name": "receiver",
          "type": "address"
        },
        {
          "components": [
            {
              "internalType": "uint256",
              "name": "field",
              "type": "uint256"
            },
            {
              "internalType": "string",
              "name": "fileHash",
              "type": "string"
            },
            {
              "internalType": "uint256",
              "name": "fileSize",
              "type": "uint256"
            },
            {
              "internalType": "string",
              "name": "fileType",
              "type": "string"
            },
            {
              "internalType": "string",
              "name": "fileName",
              "type": "string"
            },
            {
              "internalType": "uint256",
              "name": "uploadTime",
              "type": "uint256"
            },
            {
              "internalType": "address payable",
              "name": "uploader",
              "type": "address"
            }
          ],
          "indexed": false,
          "internalType": "struct User.File",
          "name": "file",
          "type": "tuple"
        }
      ],
      "name": "FileShared",
      "type": "event"
    },
    {
      "anonymous": false,
      "inputs": [
        {
          "indexed": false,
          "internalType": "uint256",
          "name": "field",
          "type": "uint256"
        },
        {
          "indexed": false,
          "internalType": "string",
          "name": "fileHash",
          "type": "string"
        },
        {
          "indexed": false,
          "internalType": "uint256",
          "name": "fileSize",
          "type": "uint256"
        },
        {
          "indexed": false,
          "internalType": "string",
          "name": "fileType",
          "type": "string"
        },
        {
          "indexed": false,
          "internalType": "string",
          "name": "fileName",
          "type": "string"
        },
        {
          "indexed": false,
          "internalType": "uint256",
          "name": "uploadTime",
          "type": "uint256"
        },
        {
          "indexed": false,
          "internalType": "address payable",
          "name": "uploader",
          "type": "address"
        }
      ],
      "name": "FileUploaded",
      "type": "event"
    },
    {
      "inputs": [],
      "name": "fileCount",
      "outputs": [
        {
          "internalType": "uint256",
          "name": "",
          "type": "uint256"
        }
      ],
      "stateMutability": "view",
      "type": "function"
    },
    {
      "inputs": [
        {
          "internalType": "address",
          "name": "",
          "type": "address"
        },
        {
          "internalType": "uint256",
          "name": "",
          "type": "uint256"
        }
      ],
      "name": "files",
      "outputs": [
        {
          "internalType": "uint256",
          "name": "field",
          "type": "uint256"
        },
        {
          "internalType": "string",
          "name": "fileHash",
          "type": "string"
        },
        {
          "internalType": "uint256",
          "name": "fileSize",
          "type": "uint256"
        },
        {
          "internalType": "string",
          "name": "fileType",
          "type": "string"
        },
        {
          "internalType": "string",
          "name": "fileName",
          "type": "string"
        },
        {
          "internalType": "uint256",
          "name": "uploadTime",
          "type": "uint256"
        },
        {
          "internalType": "address payable",
          "name": "uploader",
          "type": "address"
        }
      ],
      "stateMutability": "view",
      "type": "function"
    },
    {
      "inputs": [
        {
          "internalType": "address",
          "name": "",
          "type": "address"
        },
        {
          "internalType": "uint256",
          "name": "",
          "type": "uint256"
        }
      ],
      "name": "sharedFiles",
      "outputs": [
        {
          "internalType": "uint256",
          "name": "field",
          "type": "uint256"
        },
        {
          "internalType": "string",
          "name": "fileHash",
          "type": "string"
        },
        {
          "internalType": "uint256",
          "name": "fileSize",
          "type": "uint256"
        },
        {
          "internalType": "string",
          "name": "fileType",
          "type": "string"
        },
        {
          "internalType": "string",
          "name": "fileName",
          "type": "string"
        },
        {
          "internalType": "uint256",
          "name": "uploadTime",
          "type": "uint256"
        },
        {
          "internalType": "address payable",
          "name": "uploader",
          "type": "address"
        }
      ],
      "stateMutability": "view",
      "type": "function"
    },
    {
      "inputs": [
        {
          "internalType": "address",
          "name": "",
          "type": "address"
        }
      ],
      "name": "userType",
      "outputs": [
        {
          "internalType": "string",
          "name": "",
          "type": "string"
        }
      ],
      "stateMutability": "view",
      "type": "function"
    },
    {
      "inputs": [
        {
          "internalType": "string",
          "name": "_fileHash",
          "type": "string"
        },
        {
          "internalType": "uint256",
          "name": "_fileSize",
          "type": "uint256"
        },
        {
          "internalType": "string",
          "name": "_fileType",
          "type": "string"
        },
        {
          "internalType": "string",
          "name": "_fileName",
          "type": "string"
        }
      ],
      "name": "uploadFile",
      "outputs": [],
      "stateMutability": "nonpayable",
      "type": "function"
    },
    {
      "inputs": [],
      "name": "getFilesCount",
      "outputs": [
        {
          "internalType": "uint256",
          "name": "",
          "type": "uint256"
        }
      ],
      "stateMutability": "view",
      "type": "function"
    },
    {
      "inputs": [
        {
          "internalType": "uint256",
          "name": "index",
          "type": "uint256"
        }
      ],
      "name": "getFiles",
      "outputs": [
        {
          "components": [
            {
              "internalType": "uint256",
              "name": "field",
              "type": "uint256"
            },
            {
              "internalType": "string",
              "name": "fileHash",
              "type": "string"
            },
            {
              "internalType": "uint256",
              "name": "fileSize",
              "type": "uint256"
            },
            {
              "internalType": "string",
              "name": "fileType",
              "type": "string"
            },
            {
              "internalType": "string",
              "name": "fileName",
              "type": "string"
            },
            {
              "internalType": "uint256",
              "name": "uploadTime",
              "type": "uint256"
            },
            {
              "internalType": "address payable",
              "name": "uploader",
              "type": "address"
            }
          ],
          "internalType": "struct User.File",
          "name": "",
          "type": "tuple"
        }
      ],
      "stateMutability": "view",
      "type": "function"
    },
    {
      "inputs": [
        {
          "internalType": "string",
          "name": "_userType",
          "type": "string"
        }
      ],
      "name": "setUserType",
      "outputs": [],
      "stateMutability": "nonpayable",
      "type": "function"
    },
    {
      "inputs": [],
      "name": "getUserType",
      "outputs": [
        {
          "internalType": "string",
          "name": "",
          "type": "string"
        }
      ],
      "stateMutability": "view",
      "type": "function"
    },
    {
      "inputs": [],
      "name": "getSharedFilesCount",
      "outputs": [
        {
          "internalType": "uint8",
          "name": "",
          "type": "uint8"
        }
      ],
      "stateMutability": "view",
      "type": "function"
    },
    {
      "inputs": [],
      "name": "getSharedFiles",
      "outputs": [
        {
          "components": [
            {
              "internalType": "uint256",
              "name": "field",
              "type": "uint256"
            },
            {
              "internalType": "string",
              "name": "fileHash",
              "type": "string"
            },
            {
              "internalType": "uint256",
              "name": "fileSize",
              "type": "uint256"
            },
            {
              "internalType": "string",
              "name": "fileType",
              "type": "string"
            },
            {
              "internalType": "string",
              "name": "fileName",
              "type": "string"
            },
            {
              "internalType": "uint256",
              "name": "uploadTime",
              "type": "uint256"
            },
            {
              "internalType": "address payable",
              "name": "uploader",
              "type": "address"
            }
          ],
          "internalType": "struct User.File[]",
          "name": "",
          "type": "tuple[]"
        }
      ],
      "stateMutability": "view",
      "type": "function"
    },
    {
      "inputs": [
        {
          "components": [
            {
              "internalType": "uint256",
              "name": "field",
              "type": "uint256"
            },
            {
              "internalType": "string",
              "name": "fileHash",
              "type": "string"
            },
            {
              "internalType": "uint256",
              "name": "fileSize",
              "type": "uint256"
            },
            {
              "internalType": "string",
              "name": "fileType",
              "type": "string"
            },
            {
              "internalType": "string",
              "name": "fileName",
              "type": "string"
            },
            {
              "internalType": "uint256",
              "name": "uploadTime",
              "type": "uint256"
            },
            {
              "internalType": "address payable",
              "name": "uploader",
              "type": "address"
            }
          ],
          "internalType": "struct User.File",
          "name": "_file",
          "type": "tuple"
        },
        {
          "internalType": "address payable",
          "name": "_receiver",
          "type": "address"
        }
      ],
      "name": "shareFile",
      "outputs": [],
      "stateMutability": "nonpayable",
      "type": "function"
    }
  ],
  "bytecode": "0x60806040526000805534801561001457600080fd5b50612075806100246000396000f3fe608060405234801561001057600080fd5b50600436106100b45760003560e01c8063914e314411610071578063914e3144146101ad578063a3322a12146101cb578063b12c9d94146101e9578063b83458b014610205578063ea5530da14610235578063edd490b414610253576100b4565b806312506f4d146100b957806320f21708146100e95780632ba6978e14610105578063419900771461013b57806343953519146101595780635604143214610177575b600080fd5b6100d360048036038101906100ce91906112d4565b61026f565b6040516100e0919061148b565b60405180910390f35b61010360048036038101906100fe91906115e2565b610513565b005b61011f600480360381019061011a91906116db565b610741565b6040516101329796959493929190611783565b60405180910390f35b610143610958565b6040516101509190611807565b60405180910390f35b610161610a27565b60405161016e9190611829565b60405180910390f35b610191600480360381019061018c91906116db565b610a2d565b6040516101a49796959493929190611783565b60405180910390f35b6101b5610c44565b6040516101c291906119b0565b60405180910390f35b6101d3610f0a565b6040516101e09190611829565b60405180910390f35b61020360048036038101906101fe91906119d2565b610f54565b005b61021f600480360381019061021a9190611a1b565b610ffc565b60405161022c9190611807565b60405180910390f35b61023d61109c565b60405161024a9190611a64565b60405180910390f35b61026d60048036038101906102689190611bbd565b6110e6565b005b610277611237565b600160003373ffffffffffffffffffffffffffffffffffffffff1673ffffffffffffffffffffffffffffffffffffffff1681526020019081526020016000206000815481106102c9576102c8611c19565b5b90600052602060002090600702016040518060e0016040529081600082015481526020016001820180546102fc90611c77565b80601f016020809104026020016040519081016040528092919081815260200182805461032890611c77565b80156103755780601f1061034a57610100808354040283529160200191610375565b820191906000526020600020905b81548152906001019060200180831161035857829003601f168201915b505050505081526020016002820154815260200160038201805461039890611c77565b80601f01602080910402602001604051908101604052809291908181526020018280546103c490611c77565b80156104115780601f106103e657610100808354040283529160200191610411565b820191906000526020600020905b8154815290600101906020018083116103f457829003601f168201915b5050505050815260200160048201805461042a90611c77565b80601f016020809104026020016040519081016040528092919081815260200182805461045690611c77565b80156104a35780601f10610478576101008083540402835291602001916104a3565b820191906000526020600020905b81548152906001019060200180831161048657829003601f168201915b50505050508152602001600582015481526020016006820160009054906101000a900473ffffffffffffffffffffffffffffffffffffffff1673ffffffffffffffffffffffffffffffffffffffff1673ffffffffffffffffffffffffffffffffffffffff16815250509050919050565b600084511161052157600080fd5b600082511161052f57600080fd5b600081511161053d57600080fd5b600073ffffffffffffffffffffffffffffffffffffffff163373ffffffffffffffffffffffffffffffffffffffff160361057657600080fd5b6000831161058357600080fd5b60008081548092919061059590611cd7565b9190505550600160003373ffffffffffffffffffffffffffffffffffffffff1673ffffffffffffffffffffffffffffffffffffffff1681526020019081526020016000206040518060e0016040528060005481526020018681526020018581526020018481526020018381526020014281526020013373ffffffffffffffffffffffffffffffffffffffff16815250908060018154018082558091505060019003906000526020600020906007020160009091909190915060008201518160000155602082015181600101908161066c9190611ecb565b5060408201518160020155606082015181600301908161068c9190611ecb565b5060808201518160040190816106a29190611ecb565b5060a0820151816005015560c08201518160060160006101000a81548173ffffffffffffffffffffffffffffffffffffffff021916908373ffffffffffffffffffffffffffffffffffffffff16021790555050507f8afab45e252455189e0428faed31ed4afc4c187924fd4f30fcf4fef26b5435366000548585858542336040516107339796959493929190611783565b60405180910390a150505050565b6001602052816000526040600020818154811061075d57600080fd5b90600052602060002090600702016000915091505080600001549080600101805461078790611c77565b80601f01602080910402602001604051908101604052809291908181526020018280546107b390611c77565b80156108005780601f106107d557610100808354040283529160200191610800565b820191906000526020600020905b8154815290600101906020018083116107e357829003601f168201915b50505050509080600201549080600301805461081b90611c77565b80601f016020809104026020016040519081016040528092919081815260200182805461084790611c77565b80156108945780601f1061086957610100808354040283529160200191610894565b820191906000526020600020905b81548152906001019060200180831161087757829003601f168201915b5050505050908060040180546108a990611c77565b80601f01602080910402602001604051908101604052809291908181526020018280546108d590611c77565b80156109225780601f106108f757610100808354040283529160200191610922565b820191906000526020600020905b81548152906001019060200180831161090557829003601f168201915b5050505050908060050154908060060160009054906101000a900473ffffffffffffffffffffffffffffffffffffffff16905087565b6060600360003373ffffffffffffffffffffffffffffffffffffffff1673ffffffffffffffffffffffffffffffffffffffff16815260200190815260200160002080546109a490611c77565b80601f01602080910402602001604051908101604052809291908181526020018280546109d090611c77565b8015610a1d5780601f106109f257610100808354040283529160200191610a1d565b820191906000526020600020905b815481529060010190602001808311610a0057829003601f168201915b5050505050905090565b60005481565b60026020528160005260406000208181548110610a4957600080fd5b906000526020600020906007020160009150915050806000015490806001018054610a7390611c77565b80601f0160208091040260200160405190810160405280929190818152602001828054610a9f90611c77565b8015610aec5780601f10610ac157610100808354040283529160200191610aec565b820191906000526020600020905b815481529060010190602001808311610acf57829003601f168201915b505050505090806002015490806003018054610b0790611c77565b80601f0160208091040260200160405190810160405280929190818152602001828054610b3390611c77565b8015610b805780601f10610b5557610100808354040283529160200191610b80565b820191906000526020600020905b815481529060010190602001808311610b6357829003601f168201915b505050505090806004018054610b9590611c77565b80601f0160208091040260200160405190810160405280929190818152602001828054610bc190611c77565b8015610c0e5780601f10610be357610100808354040283529160200191610c0e565b820191906000526020600020905b815481529060010190602001808311610bf157829003601f168201915b5050505050908060050154908060060160009054906101000a900473ffffffffffffffffffffffffffffffffffffffff16905087565b6060600260003373ffffffffffffffffffffffffffffffffffffffff1673ffffffffffffffffffffffffffffffffffffffff168152602001908152602001600020805480602002602001604051908101604052809291908181526020016000905b82821015610f0157838290600052602060002090600702016040518060e001604052908160008201548152602001600182018054610ce290611c77565b80601f0160208091040260200160405190810160405280929190818152602001828054610d0e90611c77565b8015610d5b5780601f10610d3057610100808354040283529160200191610d5b565b820191906000526020600020905b815481529060010190602001808311610d3e57829003601f168201915b5050505050815260200160028201548152602001600382018054610d7e90611c77565b80601f0160208091040260200160405190810160405280929190818152602001828054610daa90611c77565b8015610df75780601f10610dcc57610100808354040283529160200191610df7565b820191906000526020600020905b815481529060010190602001808311610dda57829003601f168201915b50505050508152602001600482018054610e1090611c77565b80601f0160208091040260200160405190810160405280929190818152602001828054610e3c90611c77565b8015610e895780601f10610e5e57610100808354040283529160200191610e89565b820191906000526020600020905b815481529060010190602001808311610e6c57829003601f168201915b50505050508152602001600582015481526020016006820160009054906101000a900473ffffffffffffffffffffffffffffffffffffffff1673ffffffffffffffffffffffffffffffffffffffff1673ffffffffffffffffffffffffffffffffffffffff168152505081526020019060010190610ca5565b50505050905090565b6000600160003373ffffffffffffffffffffffffffffffffffffffff1673ffffffffffffffffffffffffffffffffffffffff16815260200190815260200160002080549050905090565b6000600360003373ffffffffffffffffffffffffffffffffffffffff1673ffffffffffffffffffffffffffffffffffffffff1681526020019081526020016000208054610fa090611c77565b905014610fac57600080fd5b80600360003373ffffffffffffffffffffffffffffffffffffffff1673ffffffffffffffffffffffffffffffffffffffff1681526020019081526020016000209081610ff89190611ecb565b5050565b6003602052806000526040600020600091509050805461101b90611c77565b80601f016020809104026020016040519081016040528092919081815260200182805461104790611c77565b80156110945780601f1061106957610100808354040283529160200191611094565b820191906000526020600020905b81548152906001019060200180831161107757829003601f168201915b505050505081565b6000600260003373ffffffffffffffffffffffffffffffffffffffff1673ffffffffffffffffffffffffffffffffffffffff16815260200190815260200160002080549050905090565b600260008273ffffffffffffffffffffffffffffffffffffffff1673ffffffffffffffffffffffffffffffffffffffff16815260200190815260200160002082908060018154018082558091505060019003906000526020600020906007020160009091909190915060008201518160000155602082015181600101908161116e9190611ecb565b5060408201518160020155606082015181600301908161118e9190611ecb565b5060808201518160040190816111a49190611ecb565b5060a0820151816005015560c08201518160060160006101000a81548173ffffffffffffffffffffffffffffffffffffffff021916908373ffffffffffffffffffffffffffffffffffffffff16021790555050507fc3fbfea1182e832f4606a9e4bd8e4c76681492cf2b269e9e3f97be409dbf5baf33828460405161122b93929190612001565b60405180910390a15050565b6040518060e00160405280600081526020016060815260200160008152602001606081526020016060815260200160008152602001600073ffffffffffffffffffffffffffffffffffffffff1681525090565b6000604051905090565b600080fd5b600080fd5b6000819050919050565b6112b18161129e565b81146112bc57600080fd5b50565b6000813590506112ce816112a8565b92915050565b6000602082840312156112ea576112e9611294565b5b60006112f8848285016112bf565b91505092915050565b61130a8161129e565b82525050565b600081519050919050565b600082825260208201905092915050565b60005b8381101561134a57808201518184015260208101905061132f565b60008484015250505050565b6000601f19601f8301169050919050565b600061137282611310565b61137c818561131b565b935061138c81856020860161132c565b61139581611356565b840191505092915050565b600073ffffffffffffffffffffffffffffffffffffffff82169050919050565b60006113cb826113a0565b9050919050565b6113db816113c0565b82525050565b600060e0830160008301516113f96000860182611301565b50602083015184820360208601526114118282611367565b91505060408301516114266040860182611301565b506060830151848203606086015261143e8282611367565b915050608083015184820360808601526114588282611367565b91505060a083015161146d60a0860182611301565b5060c083015161148060c08601826113d2565b508091505092915050565b600060208201905081810360008301526114a581846113e1565b905092915050565b600080fd5b600080fd5b7f4e487b7100000000000000000000000000000000000000000000000000000000600052604160045260246000fd5b6114ef82611356565b810181811067ffffffffffffffff8211171561150e5761150d6114b7565b5b80604052505050565b600061152161128a565b905061152d82826114e6565b919050565b600067ffffffffffffffff82111561154d5761154c6114b7565b5b61155682611356565b9050602081019050919050565b82818337600083830152505050565b600061158561158084611532565b611517565b9050828152602081018484840111156115a1576115a06114b2565b5b6115ac848285611563565b509392505050565b600082601f8301126115c9576115c86114ad565b5b81356115d9848260208601611572565b91505092915050565b600080600080608085870312156115fc576115fb611294565b5b600085013567ffffffffffffffff81111561161a57611619611299565b5b611626878288016115b4565b9450506020611637878288016112bf565b935050604085013567ffffffffffffffff81111561165857611657611299565b5b611664878288016115b4565b925050606085013567ffffffffffffffff81111561168557611684611299565b5b611691878288016115b4565b91505092959194509250565b60006116a8826113a0565b9050919050565b6116b88161169d565b81146116c357600080fd5b50565b6000813590506116d5816116af565b92915050565b600080604083850312156116f2576116f1611294565b5b6000611700858286016116c6565b9250506020611711858286016112bf565b9150509250929050565b6117248161129e565b82525050565b600082825260208201905092915050565b600061174682611310565b611750818561172a565b935061176081856020860161132c565b61176981611356565b840191505092915050565b61177d816113c0565b82525050565b600060e082019050611798600083018a61171b565b81810360208301526117aa818961173b565b90506117b9604083018861171b565b81810360608301526117cb818761173b565b905081810360808301526117df818661173b565b90506117ee60a083018561171b565b6117fb60c0830184611774565b98975050505050505050565b60006020820190508181036000830152611821818461173b565b905092915050565b600060208201905061183e600083018461171b565b92915050565b600081519050919050565b600082825260208201905092915050565b6000819050602082019050919050565b600060e0830160008301516118886000860182611301565b50602083015184820360208601526118a08282611367565b91505060408301516118b56040860182611301565b50606083015184820360608601526118cd8282611367565b915050608083015184820360808601526118e78282611367565b91505060a08301516118fc60a0860182611301565b5060c083015161190f60c08601826113d2565b508091505092915050565b60006119268383611870565b905092915050565b6000602082019050919050565b600061194682611844565b611950818561184f565b93508360208202850161196285611860565b8060005b8581101561199e578484038952815161197f858261191a565b945061198a8361192e565b925060208a01995050600181019050611966565b50829750879550505050505092915050565b600060208201905081810360008301526119ca818461193b565b905092915050565b6000602082840312156119e8576119e7611294565b5b600082013567ffffffffffffffff811115611a0657611a05611299565b5b611a12848285016115b4565b91505092915050565b600060208284031215611a3157611a30611294565b5b6000611a3f848285016116c6565b91505092915050565b600060ff82169050919050565b611a5e81611a48565b82525050565b6000602082019050611a796000830184611a55565b92915050565b600080fd5b600080fd5b611a92816113c0565b8114611a9d57600080fd5b50565b600081359050611aaf81611a89565b92915050565b600060e08284031215611acb57611aca611a7f565b5b611ad560e0611517565b90506000611ae5848285016112bf565b600083015250602082013567ffffffffffffffff811115611b0957611b08611a84565b5b611b15848285016115b4565b6020830152506040611b29848285016112bf565b604083015250606082013567ffffffffffffffff811115611b4d57611b4c611a84565b5b611b59848285016115b4565b606083015250608082013567ffffffffffffffff811115611b7d57611b7c611a84565b5b611b89848285016115b4565b60808301525060a0611b9d848285016112bf565b60a08301525060c0611bb184828501611aa0565b60c08301525092915050565b60008060408385031215611bd457611bd3611294565b5b600083013567ffffffffffffffff811115611bf257611bf1611299565b5b611bfe85828601611ab5565b9250506020611c0f85828601611aa0565b9150509250929050565b7f4e487b7100000000000000000000000000000000000000000000000000000000600052603260045260246000fd5b7f4e487b7100000000000000000000000000000000000000000000000000000000600052602260045260246000fd5b60006002820490506001821680611c8f57607f821691505b602082108103611ca257611ca1611c48565b5b50919050565b7f4e487b7100000000000000000000000000000000000000000000000000000000600052601160045260246000fd5b6000611ce28261129e565b91507fffffffffffffffffffffffffffffffffffffffffffffffffffffffffffffffff8203611d1457611d13611ca8565b5b600182019050919050565b60008190508160005260206000209050919050565b60006020601f8301049050919050565b600082821b905092915050565b600060088302611d817fffffffffffffffffffffffffffffffffffffffffffffffffffffffffffffffff82611d44565b611d8b8683611d44565b95508019841693508086168417925050509392505050565b6000819050919050565b6000611dc8611dc3611dbe8461129e565b611da3565b61129e565b9050919050565b6000819050919050565b611de283611dad565b611df6611dee82611dcf565b848454611d51565b825550505050565b600090565b611e0b611dfe565b611e16818484611dd9565b505050565b5b81811015611e3a57611e2f600082611e03565b600181019050611e1c565b5050565b601f821115611e7f57611e5081611d1f565b611e5984611d34565b81016020851015611e68578190505b611e7c611e7485611d34565b830182611e1b565b50505b505050565b600082821c905092915050565b6000611ea260001984600802611e84565b1980831691505092915050565b6000611ebb8383611e91565b9150826002028217905092915050565b611ed482611310565b67ffffffffffffffff811115611eed57611eec6114b7565b5b611ef78254611c77565b611f02828285611e3e565b600060209050601f831160018114611f355760008415611f23578287015190505b611f2d8582611eaf565b865550611f95565b601f198416611f4386611d1f565b60005b82811015611f6b57848901518255600182019150602085019450602081019050611f46565b86831015611f885784890151611f84601f891682611e91565b8355505b6001600288020188555050505b505050505050565b611fa68161169d565b82525050565b6000611fc7611fc2611fbd846113a0565b611da3565b6113a0565b9050919050565b6000611fd982611fac565b9050919050565b6000611feb82611fce565b9050919050565b611ffb81611fe0565b82525050565b60006060820190506120166000830186611f9d565b6120236020830185611ff2565b818103604083015261203581846113e1565b905094935050505056fea2646970667358221220c03c09e42159924d8edd8107bb43e8ced5d1861559e486277646edcbf0bdcd9764736f6c63430008110033",
  "immutableReferences": {},
  "source": "// SPDX-License-Identifier: GPL-3.0\r\npragma solidity ^0.8.4;\r\n\r\ncontract User {\r\n    uint public fileCount = 0; // Number of files\r\n    mapping(address => File[]) public files; // mapping of user against files\r\n    mapping(address => File[]) public sharedFiles; //mapping of user address to list of shared files\r\n    mapping(address => string) public userType; // mapping of address to user type\r\n    struct File {\r\n        uint256 field;\r\n        string fileHash;\r\n        uint256 fileSize;\r\n        string fileType;\r\n        string fileName;\r\n        uint256 uploadTime;\r\n        address payable uploader;\r\n    }\r\n\r\n    constructor() {}\r\n\r\n    event FileUploaded(\r\n        uint256 field,\r\n        string fileHash,\r\n        uint256 fileSize,\r\n        string fileType,\r\n        string fileName,\r\n        uint256 uploadTime,\r\n        address payable uploader\r\n    );\r\n    event FileShared(address sender, address receiver, File file);\r\n\r\n    function uploadFile(\r\n        string memory _fileHash,\r\n        uint _fileSize,\r\n        string memory _fileType,\r\n        string memory _fileName\r\n    ) public {\r\n        require((bytes(_fileHash).length > 0)); // Make sure the file hash exists\r\n\r\n        require((bytes(_fileType).length > 0)); // Make sure file type exists\r\n\r\n        require((bytes(_fileName).length > 0)); // Make sure file fileName exists\r\n\r\n        require(msg.sender != address(0)); // Make sure uploader address exists\r\n\r\n        require(_fileSize > 0); // Make sure file size is more than 0\r\n\r\n        fileCount++; // Increment file id\r\n\r\n        files[msg.sender].push(\r\n            File(\r\n                fileCount,\r\n                _fileHash,\r\n                _fileSize,\r\n                _fileType,\r\n                _fileName,\r\n                block.timestamp,\r\n                payable(msg.sender)\r\n            )\r\n        ); // Add File Id to the contract\r\n\r\n        emit FileUploaded(\r\n            fileCount,\r\n            _fileHash,\r\n            _fileSize,\r\n            _fileType,\r\n            _fileName,\r\n            block.timestamp,\r\n            payable(msg.sender)\r\n        ); // Trigger an event\r\n    }\r\n\r\n    function getFilesCount() public view returns (uint256) {\r\n        return files[msg.sender].length;\r\n    }\r\n\r\n    function getFiles(uint index) public view returns (File memory) {\r\n        return files[msg.sender][0];\r\n    }\r\n\r\n    function setUserType(string memory _userType) public {\r\n        require(bytes(userType[msg.sender]).length == 0);\r\n\r\n        userType[msg.sender] = _userType;\r\n    }\r\n\r\n    function getUserType() public view returns (string memory) {\r\n        return userType[msg.sender];\r\n    }\r\n\r\n    function getSharedFilesCount() public view returns (uint8) {\r\n        return uint8(sharedFiles[msg.sender].length);\r\n    }\r\n\r\n    function getSharedFiles() public view returns (File[] memory) {\r\n        return sharedFiles[msg.sender];\r\n    }\r\n\r\n    function shareFile(File memory _file, address payable _receiver) public {\r\n        sharedFiles[_receiver].push(_file);\r\n        emit FileShared(msg.sender, _receiver, _file);\r\n    }\r\n}\r\n",
  "sourcePath": "C:\\Users\\Varun Koranne\\Desktop\\WebDev\\SE\\MedChain\\truffleServer\\contracts\\User.sol",
  "compiler": {
    "name": "solc",
    "version": "0.8.17+commit.8df45f5f.Emscripten.clang"
  },
  "schemaVersion": "3.4.4",
  "updatedAt": "2022-11-06T16:34:16.003Z",
  "devdoc": {
    "kind": "dev",
    "methods": {},
    "version": 1
  },
  "userdoc": {
    "kind": "user",
    "methods": {},
    "version": 1
  }
}